:020000040800F2
:1000000000000220953F0008BD1A0008BF1A000832
:10001000C11A0008C31A0008C51A00080000000031
:10002000000000000000000000000000C71A0008E7
:10003000C91A000800000000CB1A0008CD1A0008F9
:10004000E53F0008E53F0008E53F0008E53F000800
:10005000E53F0008E53F0008E53F0008E53F0008F0
:10006000E53F0008E53F0008E53F0008E53F0008E0
:10007000D51A0008E53F0008E53F0008E53F000805
:10008000E53F0008E53F0008E53F0008E53F0008C0
:10009000E51A0008E53F0008E53F0008E53F0008D5
:1000A000E53F0008F51A0008E53F0008E53F0008B5
:1000B000E53F0008E53F0008E53F0008E53F000890
:1000C000E53F0008E53F0008E53F0008E53F000880
:1000D000E53F0008E53F0008E53F0008051B000874
:1000E000E53F0008E53F0008E53F0008E53F000860
:1000F000E53F0008E53F0008E53F0008E53F000850
:10010000E53F0008E53F0008E53F0008E53F00083F
:10011000E53F0008E53F0008E53F0008E53F00082F
:10012000E53F0008E53F0008E53F0008E53F00081F
:10013000E53F0008E53F0008E53F0008E53F00080F
:10014000E53F0008E53F0008E53F0008E53F0008FF
:10015000E53F0008E53F0008E53F0008E53F0008EF
:10016000E53F0008E53F0008E53F0008E53F0008DF
:10017000E53F0008E53F0008E53F000800000000FB
:08018000E53F0008E53F00081F
:10018800830730B547D0541E002A3ED0CAB2034672
:1001980001E0013C39D303F8012B9D07F9D1032C69
:1001A8002CD9CDB205EB05250F2C05EB054535D926
:1001B800A4F1100222F00F0C03F1100EE6444FEAEE
:1001C800121C1A46156055609560D560103272454C
:1001D800F8D10CF1010214F00C0F03EB021204F039
:1001E8000F0C13D0ACF1040323F0030304331344BE
:1001F80042F8045B9A42FBD10CF003042CB1C9B25B
:100208001C4403F8011B9C42FBD130BD64461346D5
:10021800002CF4D1F9E703461446C0E71A46A44671
:10022800E0E700BF70B50F4B0F4DAB42A3EB0506DF
:1002380007D0B610002455F8043B01349847A6426D
:10024800F9D804F01DF8094D094B5E1BAB424FEA83
:10025800A60606D0002455F8043B01349847A64268
:10026800F9D870BDC8420008C8420008C842000852
:10027800CC42000881F0004102E000BF83F0004357
:1002880030B54FEA41044FEA430594EA050F08BF29
:1002980090EA020F1FBF54EA000C55EA020C7FEAED
:1002A800645C7FEA655C00F0E2804FEA5454D4EB6A
:1002B8005555B8BF6D420CDD2C4480EA020281EA34
:1002C800030382EA000083EA010180EA020281EA6C
:1002D8000303362D88BF30BD11F0004F4FEA0131BE
:1002E8004FF4801C4CEA113102D0404261EB4101CD
:1002F80013F0004F4FEA03334CEA133302D0524253
:1003080063EB430394EA050F00F0A780A4F101040E
:10031800D5F1200E0DDB02FA0EFC22FA05F2801848
:1003280041F1000103FA0EF2801843FA05F359412E
:100338000EE0A5F120050EF1200E012A03FA0EFCAD
:1003480028BF4CF0020C43FA05F3C01851EBE371D7
:1003580001F0004507D54FF0000EDCF1000C7EEBF4
:1003680000006EEB0101B1F5801F1BD3B1F5001F32
:100378000CD349085FEA30004FEA3C0C04F1010451
:100388004FEA445212F5800F80F09A80BCF1004F7A
:1003980008BF5FEA500C50F1000041EB045141EAFC
:1003A800050130BD5FEA4C0C404141EB0101013CC5
:1003B80028BFB1F5801FE9D291F0000F04BF0146B4
:1003C8000020B1FA81F308BF2033A3F10B03B3F186
:1003D80020020CDA0C3208DD02F1140CC2F10C0216
:1003E80001FA0CF021FA02F10CE002F11402D8BF74
:1003F800C2F1200C01FA02F120FA0CFCDCBF41EA40
:100408000C019040E41AA2BF01EB0451294330BD0E
:100418006FEA04041F3C1CDA0C340EDC04F11404EB
:10042800C4F1200220FA04F001FA02F340EA0300C2
:1004380021FA04F345EA030130BDC4F10C04C4F108
:10044800200220FA02F001FA04F340EA03002946E8
:1004580030BD21FA04F0294630BD94F0000F83F432
:10046800801306BF81F480110134013D4EE77FEA15
:10047800645C18BF7FEA655C29D094EA050F08BF61
:1004880090EA020F05D054EA000C04BF1946104642
:1004980030BD91EA030F1EBF0021002030BD5FEA86
:1004A800545C05D14000494128BF41F0004130BDAE
:1004B80014F580043CBF01F5801130BD01F0004502
:1004C80045F0FE4141F470014FF0000030BD7FEA75
:1004D800645C1ABF194610467FEA655C1CBF0B4670
:1004E800024650EA013406BF52EA033591EA030F87
:1004F80041F4002130BD00BF90F0000F04BF00217F
:10050800704730B54FF4806404F132044FF00005B1
:100518004FF0000150E700BF90F0000F04BF00212A
:10052800704730B54FF4806404F1320410F0004590
:1005380048BF40424FF000013EE700BF42004FEA8B
:10054800E2014FEA31014FEA02701FBF12F07F4308
:1005580093F07F4F81F06051704732F07F4208BFBF
:10056800704793F07F4F04BF41F40021704730B5C6
:100578004FF4607401F0004521F000411CE700BF12
:1005880050EA010208BF704730B54FF000050AE095
:1005980050EA010208BF704730B511F0004502D596
:1005A800404261EB41014FF4806404F132045FEA98
:1005B800915C3FF4D8AE4FF003025FEADC0C18BF41
:1005C80003325FEADC0C18BF033202EBDC02C2F133
:1005D800200300FA03FC20FA02F001FA03FE40EAC5
:1005E8000E0021FA02F11444BDE600BF70B54FF0C9
:1005F800FF0C4CF4E06C1CEA11541DBF1CEA1355A7
:1006080094EA0C0F95EA0C0F00F0DEF82C4481EA0E
:10061800030621EA4C5123EA4C5350EA013518BF2E
:1006280052EA033541F4801143F4801338D0A0FB1B
:1006380002CE4FF00005E1FB02E506F00042E0FBC8
:1006480003E54FF00006E1FB03569CF0000F18BFCE
:100658004EF0010EA4F1FF04B6F5007F64F5407476
:1006680004D25FEA4E0E6D4146EB060642EAC62109
:1006780041EA55514FEAC52040EA5E504FEACE2E76
:10068800B4F1FD0C88BFBCF5E06F1ED8BEF1004F79
:1006980008BF5FEA500E50F1000041EB045170BDF5
:1006A80006F0004646EA010140EA020081EA030139
:1006B800B4EB5C04C2BFD4EB0C0541EA045170BD35
:1006C80041F480114FF0000E013C00F3AB8014F1AF
:1006D800360FDEBF002001F0004170BDC4F10004F8
:1006E800203C35DA0C341BDC04F11404C4F1200579
:1006F80000FA05F320FA04F001FA05F240EA0200D4
:1007080001F0004221F0004110EBD37021FA04F609
:1007180042EB06015EEA430E08BF20EAD37070BDC3
:10072800C4F10C04C4F1200500FA04F320FA05F022
:1007380001FA04F240EA020001F0004110EBD37024
:1007480041F100015EEA430E08BF20EAD37070BD94
:10075800C4F1200500FA05F24EEA020E20FA04F36D
:1007680001FA05F243EA020321FA04F001F000411C
:1007780021FA04F220EA020000EBD3705EEA430E8D
:1007880008BF20EAD37070BD94F0000F0FD101F0BC
:100798000046400041EB010111F4801F08BF013CF5
:1007A800F7D041EA060195F0000F18BF704703F033
:1007B8000046520043EB030313F4801F08BF013DBA
:1007C800F7D043EA0603704794EA0C0F0CEA135576
:1007D80018BF95EA0C0F0CD050EA410618BF52EA30
:1007E8004306D1D181EA030101F000414FF0000036
:1007F80070BD50EA410606BF1046194652EA430644
:1008080019D094EA0C0F02D150EA013613D195EAB7
:100818000C0F05D152EA03361CBF104619460AD1FF
:1008280081EA030101F0004141F0FE4141F4700109
:100838004FF0000070BD41F0FE4141F4780170BDF9
:1008480070B54FF0FF0C4CF4E06C1CEA11541DBF5E
:100858001CEA135594EA0C0F95EA0C0F00F0A7F860
:10086800A4EB050481EA030E52EA03354FEA01318D
:1008780000F088804FEA03334FF0805545EA1313A0
:1008880043EA12634FEA022245EA111545EA106568
:100898004FEA00260EF000419D4208BF964244F1FF
:1008A800FD0404F5407402D25B084FEA3202B61A1E
:1008B80065EB03055B084FEA32024FF480104FF4F2
:1008C800002CB6EB020E75EB030E22BFB61A754666
:1008D80040EA0C005B084FEA3202B6EB020E75EBF9
:1008E800030E22BFB61A754640EA5C005B084FEA61
:1008F8003202B6EB020E75EB030E22BFB61A75462E
:1009080040EA9C005B084FEA3202B6EB020E75EB38
:10091800030E22BFB61A754640EADC0055EA060EF9
:1009280018D04FEA051545EA16754FEA06164FEA3C
:10093800C30343EA52734FEAC2025FEA1C1CC0D1E8
:1009480011F4801F0BD141EA00014FF000004FF075
:10095800004CB6E711F4801F04BF01430020B4F136
:10096800FD0C88BFBCF5E06F3FF6AFAEB5EB030CEE
:1009780004BFB6EB020C5FEA500C50F1000041EBEB
:10098800045170BD0EF0004E4EEA113114EB5C04B8
:10099800C2BFD4EB0C0541EA045170BD41F480118B
:1009A8004FF0000E013C90E645EA060E8DE60CEA93
:1009B800135594EA0C0F08BF95EA0C0F3FF43BAFB0
:1009C80094EA0C0F0AD150EA01347FF434AF95EA67
:1009D8000C0F7FF425AF104619462CE795EA0C0F4B
:1009E80006D152EA03353FF4FDAE1046194622E718
:1009F80050EA410618BF52EA43067FF4C5AE50EAF2
:100A080041047FF40DAF52EA43057FF4EBAE12E7E1
:100A18004FEA410212F5001215D211D56FF478731E
:100A2800B3EB625212D94FEAC12343F0004343EAC1
:100A3800505311F0004F23FA02F018BF404270479C
:100A48004FF00000704750EA013005D111F0004026
:100A580008BF6FF0004070474FF00000704700BFBC
:100A68004FEA4102B2F1E04324BFB3F5001CDCF1C8
:100A7800FE5C0DD901F0004C4FEAC0024CEA507000
:100A8800B2F1004F40EB830008BF20F0010070472F
:100A980011F0804F21D113F13872BCBF01F0004032
:100AA800704741F480114FEA5252C2F11802C2F164
:100AB800200C10FA0CF320FA02F018BF40F00100E5
:100AC8004FEAC1234FEAD32303FA0CFC40EA0C0097
:100AD80023FA02F34FEA4303CCE77FEA625307D1D4
:100AE80050EA01331EBF4FF0FE4040F4400070470B
:100AF80001F0004040F0FE4040F40000704700BFA5
:100B080053B94AB9002908BF00281CBF4FF0FF316C
:100B18004FF0FF3000F00CB8ADF1080C6DE904CED1
:100B280003F05DFADDF804E0DDE9022304B0704764
:100B3800704700BF10B5054C237833B9044B13B187
:100B48000448AFF300800123237010BD100000207B
:100B5800000000008842000808B5034B1BB1034998
:100B68000348AFF3008008BD000000001400002017
:100B78008842000838B5084B834200D038BD074C7E
:100B880024252A4600212046FFF7FAFA2A4621465C
:100B9800014803F0BDF9F1E7580100206400002086
:100BA8000C4B984200D0704710B50C4602F0C6FEB8
:100BB800112C05D824220849064803F0A9F910BDCC
:100BC8000649054800F0B2FD054A13880133138031
:100BD800F0E700BF5801002064000020EC0200206C
:100BE800EA020020000000005D4B834200D07047FD
:100BF8002DE9F0415B4B1868FFF7A0FC56A3D3E939
:100C08000023FFF7F3FCFFF72BFFDFF88081C8F81C
:100C18000000554B1868FFF791FC4FA3D3E9002358
:100C2800FFF7E4FCFFF71CFF504F3860504DB5F953
:100C3800023000EE103A4F4C4F4BD3ED000AB8EE9D
:100C4800C00A204600F024FEB5F91A3000EE103A2A
:100C58004A4BD3ED000AB8EEC00A04F1400000F098
:100C680017FEB5F9323000EE103A454BD3ED000AC5
:100C7800B8EEC00A04F1800000F00AFEB5F94A3067
:100C880000EE103A3F4BD3ED000AB8EEC00A04F16B
:100C9800C00000F0FDFD3C4ED8ED000AD5ED1A7AF3
:100CA800B8EEE70A304600F0F3FDD7ED000AD5EDBF
:100CB800207AB8EEE70A06F1400000F0E9FDB5F940
:100CC800623000EE103AD6ED060AB8EEC00A04F516
:100CD800807000F0DDFDB5F97A3000EE103AD6EDFF
:100CE800160AB8EEC00A04F5A07000F0D1FDD4EDE4
:100CF800067A94ED167AD4ED266A94ED366ABDEE3E
:100D0800C66AFDEEE66ABDEEC77AFDEEE77A16EE34
:100D1800103A1BB216EE902A12B217EE101A09B248
:100D280017EE900A00B200F083FBD4ED467A94EDFA
:100D3800567ABDEEC77AFDEEE77A00231A4617EE1B
:100D4800101A09B217EE900A00B200F09BFBBDE83A
:100D5800F08100BFAFF300809A999999994D7B4033
:100D6800B00000204400002040000020480000207F
:100D7800F0010020840300205C00002058000020BF
:100D88005400002050000020040300204C000020E4
:100D980072B6FEE700B595B03022002108A8FFF72B
:100DA800EFF90023039304930593069307930193A4
:100DB800204A116C41F080511164126C02F080528B
:100DC8000192019A02931C4B1A6842F480421A60FD
:100DD8001B6803F480430293029B012308934FF49A
:100DE8008033099302230E934FF480020F92062258
:100DF8001092A822119212930423139308A801F0C9
:100E08007FFA98B90F2303930223049300230593D1
:100E18004FF4A05306934FF480530793052103A87A
:100E280001F0BEFC20B915B05DF804FBFFF7B0FF78
:100E3800FFF7AEFF003802400070004080B502F0B6
:100E480083F9FFF7A7FF00F059F900F0E3F900F084
:100E580085F900F0F9F900F04FFA904C204600F0BF
:100E6800B3FF204600F0C8FA9FED8DAADFED8D8A0A
:100E78009FED8D8ADFED8D9A9FED8D9A8D4CF0EE6A
:100E88004A3A0021B0EE683AF0EE482AB0EE482A15
:100E9800F0EE691AB7EE081AF0EE490AB0EE000A49
:100EA800204600F0C3FCDFED842AF0EE623A002110
:100EB800B0EE683AB0EE482AF0EE691A9FED7F1A54
:100EC800F0EE490AB0EE000A04F1400000F0AEFC72
:100ED800F0EE4A3A0021B0EE683AF0EE482AB0EE59
:100EE800482AF0EE691AB7EE081AF0EE490AB0EE91
:100EF800000A04F1800000F099FCF0EE4A3A002163
:100F0800B0EE683AF0EE482AB0EE482AF0EE691AD8
:100F1800B7EE081AF0EE490AB0EE000A04F1C00074
:100F280000F084FCF0EE4A3A0021B0EE683AF0EEA8
:100F3800482AB0EE482AF0EE691AB7EE081AF0EE21
:100F4800490AB0EE000A04F5807000F06FFCF0EE7C
:100F58004A3A0021B0EE683AF0EE482AB0EE482A44
:100F6800F0EE691AB7EE081AF0EE490AB0EE000A78
:100F780004F5A07000F05AFCDFED51AA9FED51AACC
:100F8800DFED519A9FED519A514CF0EE6A3A0021EB
:100F9800B0EE683AF0EE482AB0EE4A2AF0EE691A46
:100FA800B0EE481AF0EE480AB0EE490A204600F0C2
:100FB8003DFCF0EE6A3A0021B0EE683AF0EE482ABD
:100FC800B0EE4A2AF0EE691AB0EE481AF0EE480A76
:100FD800B0EE490A04F1400000F028FC3D4802F058
:100FE80023F900F00DFC0CE000233B4A13603B4A58
:100FF80013603B4C21463B4800F0AEFC204600F015
:101008002BFD012002F0CCF8374EB6F90000FFF7AF
:1010180083FA0022354BFFF713FC80468946344B90
:101028001868FFF78BFA04460D4602460B46404601
:101038004946FFF7DBFAFFF713FD2A4F3860B6F988
:101048000200FFF769FA0022284BFFF7F9FB024676
:101058000B4620462946FFF7C9FAFFF701FD7860DD
:10106800B6F90400FFF758FA0022204BFFF7E8FB17
:1010780002460B4620462946FFF7B8FAFFF7F0FC70
:10108800B860F37A022BAFD0012BB2D1124B194AB8
:101098001A60124B184A1A60ABE700BF880000209C
:1010A8000080A24400803B450000000000204B4621
:1010B80017B7D13884030020000096446F12933F7D
:1010C80000401C460000C8420080BB45CDCCCC3D4A
:1010D80004030020B000002044000020400000204D
:1010E8002C00002034000020EC02002000A08440E6
:1010F80000000020000034C40000344484B0002202
:101108000092154B196B41F001011963196B01F03D
:101118000101009100990192196B41F008011963CE
:10112800196B01F00801019101990292196B41F0C4
:1011380004011963196B01F00401029102990392E9
:101148001A6B42F080021A631B6B03F0800303934F
:10115800039B04B0704700BF0038024008B50C4834
:101168000C4B03600623436000238360C3604FF485
:10117800802202614361037643768376C3760377E0
:10118800437700F0DFFC00B908BDFFF701FEFBE77D
:10119800880000200064004010B588B00023039345
:1011A80004930593069307930268184B9A4201D05B
:1011B80008B010BD0024019403F5EA331A6C42F01C
:1011C80000721A641A6C02F000720192019A029479
:1011D8001A6B42F008021A631B6B03F008030293B0
:1011E800029B032303930222049206930923079385
:1011F80003A9074801F0AAFB22462146142001F062
:1012080055FF142001F062FFD2E700BF00640040E0
:10121800000C024000B583B000210191094B1A6B04
:1012280042F400121A631B6B03F400130193019B31
:101238000A460C2001F03AFF0C2001F047FF03B0EA
:101248005DF804FB0038024000B587B00023029324
:10125800039304930593009301931548154A02607C
:10126800A7224260836042F20F72C2600361436149
:10127800836102F03DF990B94FF48053029302A9BB
:101288000B4802F06EF968B9002300930193694690
:10129800074802F0E5F940B907B05DF804FBFFF72D
:1012A80077FDE9E7FFF774FDEEE7FFF771FDF3E778
:1012B800B00000200000014002680E4B9A4200D0A6
:1012C800704700B583B00021019103F59C335A6C37
:1012D80042F001025A645B6C03F001030193019B25
:1012E8000A46192001F0E2FE192001F0EFFE03B0D2
:1012F8005DF804FB0000014008B50C480C4B036086
:101308000C4B43604FF4805383600023C3604FF459
:10131800806202610C2242618361C36102F0DEFADD
:1013280000B908BDFFF734FDFBE700BF58010020F6
:1013380000480040A086010030B589B0002303931F
:1013480004930593069307930268274B9A4201D0AA
:1013580009B030BD04460025019503F5F8331A6C31
:1013680042F480221A641A6C02F480220192019AD3
:1013780002951A6B42F004021A631B6B03F0040314
:101388000293029B4FF440630393022304930323C5
:1013980006930723079303A9144801F0D7FA1448C2
:1013A800144B03604FF0006343608560C5604FF4E1
:1013B8008063036145618561C5614FF44033036211
:1013C800456201F039FC58B9094BE3639C6300227C
:1013D8001146272001F06AFE272001F077FEB7E7C3
:1013E800FFF7D6FCF0E700BF0048004000080240C5
:1013F800F80000202860024000B58BB00023059358
:101408000693012207920093019302930393049396
:1014180008920E230993694600F03AFC022103481A
:1014280000F02AFE0BB05DF804FB00BF8800002026
:1014380010B58E469446104908220A6100228A6037
:10144800CA604FF400720A60C0F307240B4A147094
:101458005070CEF30720907082F803E0CCF3072099
:10146800107182F805C0C3F307209071D37101236E
:10147800034800F0D7FC10BDD4010020E002002092
:101488008800002010B58E469446104908220A614B
:1014980000228A60CA6040F2FF120A60C0F3072483
:1014A8000B4A14705070CEF30720907082F803E056
:1014B800CCF30720107182F805C0C3F307209071A0
:1014C800D3710123034800F0ADFC10BDBC0100201E
:1014D800E0020020880000200A784B7843EA0223C3
:1014E80003808A78CB7843EA022343800A794B79D0
:1014F80043EA022383808B79C38070470368B3F57E
:10150800805F02DDA3F500530360036813F5805F75
:1015180002DA03F500530360704700002DE9F0413B
:1015280004461A4B00EB400203EBC20533F9323094
:10153800174F47F82030174E56F820209B1ADFF82F
:10154800688048F8203008EB8000FFF7D7FFAB68C9
:1015580058F824201344AB600F4A52F824209B1AF1
:10156800AB6057F8242046F824200C4A1268D31A96
:101578000133022B08D80A4A0023D362136353634A
:10158800084A53631363D362BDE8F081F001002079
:10159800C8020020B0020020800200206000002065
:1015A8008403002004030020980200200268324BC4
:1015B8009A4200D07047314B1B68012B12DD2F4B2C
:1015C8001B68012B12D12E4AB2F918102D4B596005
:1015D800B2F930109960B2F94810D960B2F96020B8
:1015E8001A6170470133254A1360E8E710B582B0E5
:1015F800002100910191244C6B462246234800F0BB
:1016080086FC2368A3F20123052B0BD8DFE803F03F
:10161800030C141C242C69461948FFF75DFF0020B1
:10162800FFF77CFF02B010BD69461948FFF754FF69
:101638000120FFF773FFF5E769461648FFF74CFFEF
:101648000220FFF76BFFEDE769461348FFF744FFF9
:101658000320FFF763FFE5E769461048FFF73CFF03
:101668000420FFF75BFFDDE769460D48FFF734FF0D
:101678000520FFF753FFD5E700640040EC01002088
:10168800F001002080020020A00100208800002036
:10169800080200202002002038020020500200200A
:1016A80068020020002800DD7047404200B2FBE7D6
:1016B80008B51D4BB3F90000FFF7F4FFB0F52F7F15
:1016C8001FDC194BB3F90200FFF7ECFFB0F52F7FD1
:1016D80017DC154BB3F90400FFF7E4FFB0F52F7FD3
:1016E8000FDC114BB3F90600FFF7DCFFB0F52F7FD5
:1016F80007DC0D4B9B7A23B10B4BDB7A0BB1002037
:1017080010E0094B00221A805A809A80DA801A81E8
:1017180002219972D9729A81DA811A829A74DA74DA
:101728009A82012008BD00BFEC020020002865D085
:1017380038B50346002960D00478427844EA022488
:10174800C4F30A040C8090F801E082784FEADE0EB8
:101758004EEA421ECEF30A0EA1F802E08278C07863
:10176800920942EA8002187942EA8022C2F30A0208
:101778008A8093F804C058794FEA5C0C4CEAC01C84
:10178800CCF30A0CA1F806C05879C0F3011088728E
:1017980058798009C8729879DD7940EA05208881EE
:1017A800187A5D7A40EA0520C881987ADD7A40EA9D
:1017B80005200882187B8874587BC874987BDD7B69
:1017C80040EA05208882187C5B7C40EA03231BB230
:1017D8000B81A4F580640C80AEF5806EA1F802E060
:1017E800A2F580628A80ACF5806CA1F806C09BB235
:1017F800A3F580630B81FFF75BFF38BD70470000DE
:1018080038B5074C24252A4600212046FEF7B8FCA7
:101818002A462146034802F07BFB034B187038BD6B
:101828006400002058010020E802002080ED000A32
:10183800C0ED010A80ED021A002343618361C0ED07
:10184800042A80ED082AC0ED091A0361C362036304
:1018580043638363C0ED073A80ED033A7047B4EE03
:10186800E00AF1EE10FA07DCB4EEC10AF1EE10FA64
:1018780004D5B0EE410A7047B0EE600A7047B5EE85
:10188800C00AF1EE10FA00DB7047B1EE400AFBE740
:1018980010B52DED028B0446036BC362D0ED0D8AA3
:1018A800C0ED0C8A30EEC08A80ED0D8A90F83C308D
:1018B800ABBB90ED040AD0ED017A68EE277A30EEE2
:1018C800270A80ED040AD0ED070AB1EE601AFFF787
:1018D800C6FF84ED040A94ED007A28EE077AD4ED69
:1018E800027A38EE688A67EE887AC4ED0E7A30EEAE
:1018F800070AD4ED090AB1EE601A30EE270AFFF79D
:10190800AEFFBDEEC00A10EE103A1BB200EE103A60
:10191800B8EEC00A84ED060ABDEC028B10BD012B9F
:1019280002D000238361F7E7B0EE480AFFF7A7FF6C
:10193800D4ED087AB4EEE70AF1EE10FAECDBD4ED58
:10194800090AB1EE601A94ED060AFFF788FF84EDE4
:10195800060AE1E7000000002DE9F0412DED028BB9
:1019680082B004468846D0ED018A90ED008A78EE70
:10197800C87A17EE900AFEF7E1FD06460F46A06802
:10198800FEF7DCFD30A3D3E90023FEF72FFE044663
:101998000D4602460B4630463946FEF771FC2CA32D
:1019A800D3E90023FEF722FEFFF732F8ADF8000076
:1019B80078EE887A17EE900AFEF7C0FD02460B46CD
:1019C80020462946FEF75CFC21A3D3E90023FEF755
:1019D8000DFEFFF71DF8ADF8020078EE687A17EEF5
:1019E800900AFEF7ABFD02460B4620462946FEF755
:1019F80047FC17A3D3E90023FEF7F8FDFFF708F823
:101A0800ADF80400B1EE488A78EE687A17EE900ACD
:101A1800FEF794FD02460B4620462946FEF730FCA9
:101A28000BA3D3E90023FEF7E1FDFEF7F1FFADF8C4
:101A380006006B4603CBC8F80000C8F8041002B0D3
:101A4800BDEC028BBDE8F0819A9999999999D93F93
:101A5800000000008EDF4740B0F9003007EE903AF2
:101A6800F8EEE77A0F4BC3ED007AB0F9023007EED3
:101A7800903AF8EEE77A0C4BC3ED007AB0F90430EF
:101A880007EE903AF8EEE77A084BC3ED007AB0F922
:101A9800063007EE903AF8EEE77A054BC3ED007A88
:101AA800704700BF5C000020580000205400002050
:101AB80050000020FEE7FEE7FEE7FEE7FEE770477E
:101AC8007047704708B501F059FB08BD08B50248D2
:101AD80001F0AAF908BD00BFF800002008B50248C7
:101AE80000F0E8FA08BD00BF8800002008B50248E9
:101AF80001F0E2FB08BD00BFB000002008B50248B5
:101B080002F016F808BD00BF5801002082B000217D
:101B180000910B4B5A6C42F480425A645A6C02F49E
:101B280080420092009A01911A6C42F080521A6425
:101B38001B6C03F080530193019B02B0704700BFF8
:101B480000380240002800F0A18038B5044690F81B
:101B58002030D3B12268136843F00103136001F009
:101B680019FB054623685A6812F0010F10D101F0DD
:101B780011FB401B0A28F5D9636A43F400336362FA
:101B8800052384F82030012038BDFFF705FBE1E785
:101B98001A6822F002021A6001F0FCFA054623686E
:101BA8005A6812F0020F0DD001F0F4FA401B0A280F
:101BB800F5D9636A43F400336362052384F820305F
:101BC8000120E1E7227E012A3DD01A6822F0800236
:101BD8001A60637E012B3BD02268136823F0400310
:101BE8001360A37E012B39D02268136823F02003E9
:101BF8001360E37E012B37D02268136843F010038B
:101C08001360237F012B35D02268136823F0080363
:101C18001360637F012B33D02268136823F0040319
:101C28001360A368E268134322691343626913438C
:101C38006268013A21681343CB6100206062012386
:101C480084F82030A0E71A6842F080021A60C0E7E2
:101C58002268136843F040031360C2E722681368E0
:101C680043F020031360C4E72268136823F01003CD
:101C78001360C6E72268136843F008031360C8E7D7
:101C88002268136843F004031360CAE70120704711
:101C980090F82030013BDBB2012B05D9436A43F4AD
:101CA800802343620120704730B5464BD3F80022A9
:101CB80042F00102C3F80022D3F8002222F47C5239
:101CC800C3F80022D3F80022486A42EA0022C3F887
:101CD80000224A6902F01F02012000FA02F2D3F83A
:101CE8001C026FEA020C20EA0200C3F81C02CB694E
:101CF800C3B9344BD3F80C020CEA0000C3F80C0249
:101D08008C884869CD6844EA0544483043F8304037
:101D18008C68088840EA04404C6904F1480E03EBDB
:101D2800CE035860CB69012B1ED08B69002B33D1B1
:101D38002448D0F804320CEA0303C0F804320B69D3
:101D48008BBB2048D0F814320CEA0303C0F81432D5
:101D58000B6A012B2ED01B4AD2F8003223F0010364
:101D6800C2F80032002030BD164BD3F80C021043E5
:101D7800C3F80C028C8848690D6844EA0544483069
:101D880043F8304088894C698D6840EA05404834FA
:101D980003EBC4035860C8E70A48D0F80432134379
:101DA800C0F80432CBE70748D0F814321343C0F820
:101DB8001432CDE70349D1F81C321343C1F81C3261
:101DC800C9E700BF0064004070B5044690F8205091
:101DD800EDB2012D06D0436A43F400234362012586
:101DE800284670BD022380F820300268136823F06B
:101DF8000103136001F0CEF9064623685B6813F00F
:101E0800010F0CD001F0C6F9831B0A2BF5D9636AC0
:101E180043F400336362052384F82030E0E70025AB
:101E28006562DDE730B590F820C00468A4680CF15D
:101E3800FF3C5FFA8CFCBCF1010F62D814F0E05F44
:101E480059D0C4F3016C012404FA0CF41C608B68AB
:101E5800002B3DD10D68CB68046843EA45550CF169
:101E680018031B01E55003680C690CF1180E03EB0D
:101E78000E135C600B7D012B35D0D17993791B044F
:101E880043EA0163517943EA012314790168234342
:101E980001EB0C11C1F88C31D17893781B0443EA1B
:101EA8000163517843EA0123117802680B4302EB7E
:101EB8000C12C2F8883102680CF1180C4FEA0C1C9D
:101EC80052F80C3043F0010342F80C3000201DE0BA
:101ED8004C6843EAC403CC6823430CF1180424017A
:101EE80005682B51BFE7036803EB0E13596841F4EB
:101EF80080715960C1E7436A43F4001343620120CB
:101F080004E0436A43F480234362012030BD90F823
:101F180020C00CF1FF3C5FFA8CFCBCF1010F00F211
:101F2800A58030B451B90468E46814F0030F10D1E7
:101F3800436A43F40013436201207EE00468246985
:101F480014F0030F05D1436A43F4001343620120E0
:101F580073E0056801F11B0424012C5904F0040402
:101F68009460002C6BD1056801F11B0424012C59E5
:101F7800640D1460046801F11B0C4FEA0C1C54F842
:101F88000C4004F00204D4600468A444DCF8045053
:101F980015F0080F5BD008241461046801F11B0CCC
:101FA80004EB0C146468C4F307249461046804EB1C
:101FB8000C146468240C5461026802EB0112D2F814
:101FC800B8211A70026802EB0112D2F8B821C2F3E4
:101FD80007225A70026802EB0112D2F8B821C2F344
:101FE80007429A70026802EB0112D2F8B821120E69
:101FF800DA70026802EB0112D2F8BC211A71026889
:1020080002EB0112D2F8BC21C2F307225A7102680E
:1020180002EB0112D2F8BC21C2F307429A7102689E
:1020280002EB0112D2F8BC21120EDA71C1B90268B2
:10203800D36843F02003D360002030BC70470568A4
:1020480001F11B0424012C59E408546092E701F1C2
:102058001B0504EB0514646804F00F0414619CE785
:102068000268136943F020031361E5E7436A43F408
:10207800802343620120704790F82030013BDBB297
:10208800012B05D9436A43F480234362012070473A
:10209800026853690B4353610020704770477047CB
:1020A8007047704770477047704770477047704770
:1020B800704770472DE9F84F054603685C69D3F807
:1020C80004809F68D3F80CB0D3F810A0D3F8189008
:1020D80014F001063BD017F0010616D001229A60D1
:1020E80017F0020F08D117F0040F0CD117F00806EB
:1020F80006D04FF4805608E0FFF7D0FF002604E032
:10210800FFF7CFFF01E04FF4006617F4807F0DD092
:102118002B684FF480729A6017F4007F40F0868035
:1021280017F4806F00F0868046F4005617F4803F5D
:102138000DD02B684FF480329A6017F4003F40F0BE
:10214800838017F4802F00F0838046F4004614F053
:10215800080F07D01BF0100F04D046F400762B6848
:102168001022DA6014F0040F02D01BF0080F79D1A6
:1021780014F0020F04D02B68DB6813F0030F78D13A
:1021880014F0400F07D01AF0100F04D046F4806600
:102198002B6810221A6114F0200F02D01AF0080FD1
:1021A8006BD114F0100F04D02B681B6913F0030FC8
:1021B8006AD114F4003F02D018F0100F68D114F45B
:1021C800803F02D018F0080F69D114F4004F7AD07C
:1021D80018F0040F74D014F4807F04D019F0010FA4
:1021E80001D046F0010614F4007F04D019F0020F64
:1021F80001D046F0020614F4806F04D019F0040FE1
:1022080001D046F0040614F4006F59D019F0700993
:1022180056D0B9F1400F65D058D8B9F1200F5ED02B
:10222800B9F1300F42D146F0200644E02846FFF7C6
:1022380036FF7BE717F4006F02D046F4804675E757
:102248002846FFF72FFF71E72846FFF729FF7EE7AB
:1022580017F4002F02D046F4803678E72846FFF7B7
:1022680022FF74E72B680822DA602846FFF71CFF74
:102278007EE72846FFF79AF982E72B6808221A6159
:102288002846FFF713FF8CE72846FFF70EFF90E775
:102298002B6810225A602846FFF709FF8FE72B6842
:1022A80008225A602846FFF703FF8EE7B9F1100F9E
:1022B80001D146F008062A68936923F070039361F8
:1022C8002B6804225A609EB9BDE8F88FB9F1500F07
:1022D8000BD0B9F1600FEED146F48076EBE746F00B
:1022E8001006E8E746F04006E5E746F08006E2E734
:1022F8006B6A33436B622846FFF7DBFEE4E70000B6
:10230800002800F0E08170B582B00446036813F03D
:10231800010F3BD09F4B9B6803F00C03042B2CD080
:102328009C4B9B6803F00C03082B21D06368B3F522
:10233800803F4FD0B3F5A02F52D0964B1A6822F4A5
:1023480080321A601A6822F480221A606368002BAF
:1023580050D000F01FFF05468E4B1B6813F4003F5A
:1023680014D100F017FF401B6428F5D90320B1E110
:10237800884B5B6813F4800FD8D0864B1B6813F426
:10238800003F03D06368002B00F09F81236813F09F
:10239800020F54D07F4B9B6813F00C0F3ED07D4B3F
:1023A8009B6803F00C03082B33D0E368002B68D03C
:1023B800794B01221A6000F0EDFE0546754B1B684B
:1023C80013F0020F54D100F0E5FE401B0228F5D9A6
:1023D80003207FE16F4A136843F480331360B5E745
:1023E8006C4B1A6842F480221A601A6842F48032F0
:1023F8001A60ABE700F0CEFE0546664B1B6813F487
:10240800003FC3D000F0C6FE401B6428F5D9032066
:1024180060E1604B5B6813F4800FC6D15D4B1B68AD
:1024280013F0020F03D0E368012B40F05081594AA2
:10243800136823F0F803216943EAC1031360236892
:1024480013F0080F42D063696BB3534B0122C3F8F2
:10245800802E00F09FFE05464E4B5B6F13F0020F77
:1024680034D100F097FE401B0228F5D9032031E152
:10247800484A136823F0F803216943EAC10313604B
:10248800DDE7454B00221A6000F084FE0546414B0B
:102498001B6813F0020FD2D000F07CFE401B02280C
:1024A800F5D9032016E13C4B0022C3F8802E00F03A
:1024B80071FE0546374B5B6F13F0020F06D000F034
:1024C80069FE401B0228F5D9032003E1236813F0B5
:1024D800040F77D02F4B1B6C13F0805F33D1002390
:1024E80001932C4B1A6C42F080521A641B6C03F057
:1024F80080530193019B0125284B1B6813F4807FAF
:1025080023D0A368012B34D0052B38D0214B1A6F68
:1025180022F001021A671A6F22F004021A67A368F0
:10252800002B3DD000F036FE06461A4B1B6F13F009
:10253800020F46D100F02EFE801B41F288339842EC
:10254800F3D90320C6E00025D6E7144A136843F4FC
:102558008073136000F01EFE0646104B1B6813F4D0
:10256800807FCED100F016FE801B0228F5D903200B
:10257800B0E0084A136F43F001031367CFE7054B38
:102588001A6F42F004021A671A6F42F001021A67C2
:10259800C5E700BF00380240000047420070004015
:1025A80000F0F8FD0646524B1B6F13F0020F08D0DF
:1025B80000F0F0FD801B41F288339842F3D90320E4
:1025C80088E0EDB9A369002B00F08380484A92683F
:1025D80002F00C02082A51D0022B17D0454B0022DA
:1025E8001A6600F0D7FD0446414B1B6813F0007FC4
:1025F80042D000F0CFFD001B0228F5D9032069E086
:102608003B4A136C23F080531364DBE7394B0022F9
:102618001A6600F0BFFD0546354B1B6813F0007FB6
:1026280006D000F0B7FD401B0228F5D9032051E081
:10263800E369226A1343626A43EA8213A26A520870
:10264800013A43EA0243E26A43EA0263284A5360D2
:10265800284B01221A6600F09DFD0446244B1B6896
:1026680013F0007F06D100F095FD001B0228F5D974
:1026780003202FE000202DE000202BE0012B2BD0A1
:102688001B4B5B6803F48001E269914226D103F099
:102698003F02216A8A4223D1616A47F6C0721A4012
:1026A800B2EB811F1ED103F44031A26A5208013AED
:1026B800B1EB024F18D103F07063E26AB3EB026F1B
:1026C80014D1002006E001207047012002E001201B
:1026D80000E0002002B070BD0120FBE70120F9E70F
:1026E8000120F7E70120F5E70120F3E70120F1E7F2
:1026F800003802400000474208B5264B9B6803F0AB
:102708000C03042B41D0082B41D1224B5A6802F00C
:102718003F025B6813F4800F12D01E4B5968C1F357
:1027280088111D480023A1FB0001FEF7E9F9194BA8
:102738005B68C3F3014301335B00B0FBF3F027E0B0
:10274800144B5868C0F388104FEA401CBCEB000CCF
:102758006EEB0E0E4FEA8E1343EA9C634FEA8C1120
:10276800B1EB0C0163EB0E03DB0043EA5173C900C4
:1027780011EB000C43F10003990200234FEA8C206F
:1027880041EA9C51FEF7BCF9D1E7034800E0034851
:1027980008BD00BF00380240001BB7000024F40049
:1027A800002800F09B8070B50D4604464F4B1B680F
:1027B80003F007038B4208D2CBB24C4A137013685C
:1027C80003F007038B4240F08B80236813F0020F5D
:1027D80017D013F0040F04D0454A936843F4E0532C
:1027E8009360236813F0080F04D0414A936843F4B8
:1027F800604393603E4A936823F0F003A1680B435B
:102808009360236813F0010F32D06368012B21D045
:102818009A1E012A25D9364A126812F0020F61D091
:1028280033498A6822F0030213438B6000F0B2FC3C
:1028380006462F4B9B6803F00C036268B3EB820FCC
:1028480016D000F0A7FC801B41F288339842F0D9DB
:10285800032042E0264A126812F4003FE0D101202A
:102868003BE0234A126812F0007FD9D1012034E0FE
:102878001E4B1B6803F00703AB4207D9EAB21B4B98
:102888001A701B6803F00703AB422DD1236813F0BD
:10289800040F06D0164A936823F4E053E1680B430B
:1028A8009360236813F0080F07D0114A936823F444
:1028B8006043216943EAC1039360FFF71DFF0C4B96
:1028C8009B68C3F303130B4AD35CD8400A4B1860C8
:1028D8000A4B186800F012FC002070BD01207047F8
:1028E8000120FAE70120F8E70120F6E7003C024062
:1028F80000380240B04200080C0000200800002008
:10290800014B1868704700BF0C00002008B5FFF79E
:10291800F7FF044B9B68C3F38223034AD35CD84078
:1029280008BD00BF00380240A842000808B5FFF7FC
:10293800E7FF044B9B68C3F34233034AD35CD84098
:1029480008BD00BF00380240A842000800230F2B32
:1029580000F2E98070B582B065E085684FEA430E01
:10296800032404FA0EF425EA0405CC6804FA0EF4EC
:102978002C438460446824EA02044A68C2F30012C3
:102988009A40224342605CE0DC08083450F8242076
:1029980003F00705AD004FF00F0E0EFA05FE22EA10
:1029A8000E0E0A69AA4042EA0E0240F824205CE0B2
:1029B800072200E0002202FA0EF22A4302345A4D9E
:1029C80045F82420594A94686FEA0C0224EA0C0559
:1029D8004E6816F4801F01D04CEA0405534CA560DC
:1029E800E46802EA04054E6816F4001F01D04CEAB8
:1029F80004054E4CE560646802EA04054E6816F466
:102A0800003F01D04CEA0405484C65602468224028
:102A18004D6815F4803F01D04CEA0402434C226013
:102A280001330F2B7DD801229A400C6804EA020C6E
:102A380032EA0404F4D14C6804F00304013C012C8C
:102A48008BD94A6802F00302032A09D0C4685D00E2
:102A58000322AA4024EA02048A68AA402243C260E8
:102A68004A6802F00302022A8ED004684FEA430E35
:102A7800032202FA0EF224EA02044A6802F0030270
:102A880002FA0EF2224302604A6812F4403FC7D0AD
:102A980000220192264A546C44F480445464526CD7
:102AA80002F480420192019A9C08A51C1E4A52F821
:102AB800255003F0030E4FEA8E0E0F2202FA0EF293
:102AC80025EA02051B4A90423FF474AF02F5806282
:102AD80090421AD002F58062904218D002F58062C6
:102AE800904216D002F58062904214D002F58062BE
:102AF800904212D002F58062904210D002F58062B6
:102B080090423FF455AF082255E7012253E70222CD
:102B180051E703224FE704224DE705224BE706223F
:102B280049E702B070BD704700380140003C0140E1
:102B3800003802400000024030B405682C6824F4D4
:102B480080242C60046863608368402B05D0036888
:102B580099600368DA6030BC704703689A6003685C
:102B6800D960F8E710B40368D9B210390C4AA2FB4F
:102B7800014212090B4CA25CC2655F2909D923F4F2
:102B88007F7323F0030304338365806D5DF8044B82
:102B9800704723F47F7323F003038365F5E700BFD1
:102BA800ABAAAAAAA0420008836A826992B9012B3B
:102BB8000AD0022B02D00BB100207047C36A13F071
:102BC800807F28D100207047C36AB3F1C07F24D02A
:102BD80000207047B2F5005F09D0022B25D9032BDE
:102BE80025D1C36A13F0807F23D100207047032BBF
:102BF80003D8DFE803F01404140A00207047C36AFE
:102C080013F0807F0DD100207047C36AB3F1C07FF5
:102C180009D000207047012070470120704701202B
:102C2800704701207047012070470120704700203D
:102C3800704701207047000070B5044600F0AAFAFA
:102C4800002C5BD00546022384F83530002384F835
:102C580034302268136823F00103136023681A686C
:102C680012F0010F0AD000F095FA431B052BF5D995
:102C780020236365032084F8350070BD1A68204955
:102C880011406268A0680243E06802432069024379
:102C980060690243A0690243E0690243206A024373
:102CA8000A43616A04291ED01A602668756925F0EE
:102CB8000705636A1D43042B07D1A36A1D43E36A12
:102CC8001BB12046FFF770FF90B975612046FFF7EA
:102CD80049FFE26D3F239340836000206065012334
:102CE80084F83530C9E7E16A206B01430A43DBE722
:102CF80040236365012084F83500BEE70120BCE766
:102D08003F8010F038B50446856D90F834000128EE
:102D18002BD0012084F8340094F83500C0B2012883
:102D280004D0002384F83430022038BD022084F80F
:102D38003500002060652046FFF7FEFEE26D3F2368
:102D48009340AB602268136843F016031360236C4A
:102D580023B12268136843F00803136022681368DC
:102D680043F0010313600020DFE70220DDE770B5C0
:102D78000446866D00F00EFA94F83530DBB2022B6B
:102D880006D080236365002384F83430012070BDA9
:102D980005462268136823F01603136022685369F6
:102DA80023F080035361236CE3B12268136823F096
:102DB800080313602268136823F001031360236873
:102DC8001B6813F0010F11D000F0E4F9431B052B29
:102DD800F5D920236365032084F83500002384F89F
:102DE8003430D4E7A36C002BDFD1E3E7E26D3F2357
:102DF8009340B360012384F83530002084F8340010
:102E0800C5E790F83530DBB2022B03D08023436549
:102E180001207047052380F835300268136823F0D5
:102E28000103136000207047F0B583B00446002307
:102E38000193724B1D68724BA3FB0535AD0A876D74
:102E48003E68C26D08239340334210D003681A6865
:102E580012F0040F0BD01A6822F004021A60C26D37
:102E680008239340BB60436D43F001034365E26D63
:102E780001239340334209D02268526912F0800F2F
:102E880004D0BB60636D43F002036365E26D042305
:102E98009340334209D02268126812F0020F04D01E
:102EA800BB60636D43F004036365E26D10239340D8
:102EB800334224D02268126812F0080F1FD0BB607A
:102EC80023681A6812F4802F0DD01B6813F4002FA2
:102ED80004D1236C9BB12046984710E0A36C73B1D2
:102EE800204698470BE01A6812F4807F03D11A68CD
:102EF80022F008021A60236C0BB120469847E26D55
:102F080020239340334255D02268126812F0100FE4
:102F180050D0BB6094F83530DBB2052B0ED0236857
:102F28001A6812F4802F33D01B6813F4002F2AD1AB
:102F3800636C002B3ED0204698473BE0226813681C
:102F480023F0160313602268536923F0800353614A
:102F5800236CA3B12268136823F008031360E26DA1
:102F68003F239340BB60012384F83530002384F865
:102F78003430236D002B3FD0204698473CE0A36CAB
:102F8800002BE7D1EBE7E36BA3B12046984711E0AC
:102F98001A6812F4807F09D11A6822F010021A60A8
:102FA800012384F83530002384F83430E36B0BB107
:102FB80020469847636DFBB1636D13F0010F17D07E
:102FC800052384F835302268136823F00103136061
:102FD800019B01330193AB4204D823681B6813F0AB
:102FE800010FF5D1012384F83530002384F83430FB
:102FF800E36C0BB12046984703B0F0BD0C000020ED
:10300800B5814E1B002807DB00F01F024009012391
:103018009340024A42F82030704700BF00E100E0C8
:10302800002808DB0901C9B200F1604000F56140E1
:1030380080F80013704700F00F000901C9B2014B76
:103048001954704714ED00E000B500F00700C0F116
:10305800070CBCF1040F28BF4FF0040C031D062B0E
:103068000FD9C31E4FF0FF3E0EFA0CF021EA000103
:1030780099400EFA03FE22EA0E0241EA02005DF8C8
:1030880004FB0023EEE70000074AD36823F4E0635B
:103098001B041B0C000200F4E060034343F0BF6311
:1030A80043F40033D360704700ED00E010B50446E8
:1030B800054BD868C0F30220FFF7C6FF014620463B
:1030C800FFF7AEFF10BD00BF00ED00E008B5FFF749
:1030D80099FF08BD0138B0F1807F0BD24FF0E02393
:1030E8005861054AF02182F82310002098610722D0
:1030F8001A6170470120704700ED00E010B50446E2
:103108000E4B1A784FF47A73B3FBF2F30C4A10683B
:10311800B0FBF3F0FFF7DEFF68B90F2C01D90120EF
:103128000AE0002221464FF0FF30FFF7BFFF054BB2
:103138001C60002000E0012010BD00BF040000203A
:103148000C0000200800002008B50B4B1A6842F458
:1031580000721A601A6842F480621A601A6842F4AF
:1031680080721A600320FFF78FFF0F20FFF7C6FF5A
:10317800FEF7CCFC002008BD003C0240034A116861
:10318800034B1B780B441360704700BF04050020F5
:1031980004000020014B1868704700BF0405002098
:1031A80038B50446FFF7F6FF0546B4F1FF3F02D0F5
:1031B800044B1B781C44FFF7EDFF401BA042FAD3D9
:1031C80038BD00BF0400002010B4036A046A24F06C
:1031D80001040462846924F0F00C4CEA021223F022
:1031E8000A030B43826103625DF8044B704710B415
:1031F800036A046A24F010040462846924F4704C9D
:103208004CEA023223F0A00343EA0113826103620D
:103218005DF8044B7047836823F070030B4343F059
:10322800070383607047000090F83D30DBB2012B44
:1032380037D1022380F83D300268D36843F0010398
:10324800D3600368194A934220D0B3F1804F1DD050
:10325800A2F57C42934219D002F58062934215D0C0
:1032680002F58062934211D002F5784293420DD064
:1032780002F57052934209D0A2F59432934205D0D8
:103288001A6842F001021A60002070479A6802F03A
:103298000702062A07D01A6842F001021A600020C5
:1032A8007047012070470020704700BF00000140B0
:1032B800704770477047704770B504460368DE680A
:1032C8001D6915F0020F10D016F0020F0DD06FF027
:1032D80002021A610123037703689B6913F0030F45
:1032E8005ED0FFF7E6FF0023237715F0040F12D016
:1032F80016F0040F0FD023686FF004021A6102233E
:10330800237723689B6913F4407F4FD02046FFF74B
:10331800D0FF0023237715F0080F12D016F0080FFE
:103328000FD023686FF008021A61042323772368FB
:10333800DB6913F0030F40D02046FFF7BAFF0023E4
:10334800237715F0100F12D016F0100F0FD0236846
:103358006FF010021A61082323772368DB6913F4DE
:10336800407F31D02046FFF7A4FF0023237715F0D4
:10337800010F02D016F0010F2DD115F0800F02D0E9
:1033880016F0800F2FD115F0400F02D016F0400F25
:1033980031D115F0200F02D016F0200F33D170BDB7
:1033A800FFF786FF2046FFF785FF9CE72046FFF7DB
:1033B8007FFF2046FFF77EFFABE72046FFF778FF49
:1033C8002046FFF777FFBAE72046FFF771FF204650
:1033D800FFF770FFC9E723686FF001021A61204602
:1033E800FDF702FCC9E723686FF080021A612046E6
:1033F80000F07DF9C7E723686FF040021A612046A4
:10340800FFF759FFC5E723686FF020021A612046CD
:1034180000F06CF9C3E700000368344A904212D008
:10342800B0F1804F0FD0A2F57C4290420BD002F54C
:103438008062904207D002F58062904203D002F584
:103448007842904203D123F070034A681343274A15
:1034580090422AD0B0F1804F27D0A2F57C4290420A
:1034680023D002F5806290421FD002F5806290421C
:103478001BD002F57842904217D002F57052904264
:1034880013D002F5806290420FD002F5806290421C
:103498000BD0A2F59832904207D002F58062904294
:1034A80003D002F58062904203D123F44073CA68C6
:1034B800134323F080034A69134303608B68C36294
:1034C8000B688362094B984203D003F580639842E6
:1034D80001D10B69036301234361036913F0010FF1
:1034E80003D0036923F00103036170470000014022
:1034F80040B310B5044690F83D30F3B1022384F888
:103508003D30214651F8040BFFF786FF012384F86C
:10351800463084F83E3084F83F3084F8403084F8F0
:10352800413084F8423084F8433084F8443084F8D9
:10353800453084F83D30002010BD80F83C30FDF760
:10354800BBFEDBE70120704710B4846824F47F4C8D
:1035580042EA03220A4342EA0C0282605DF8044B05
:10356800704790F83C30012B78D010B50446012301
:1035780080F83C30022380F83D300268936823F4D9
:103588007F4323F0770393600B68602B4CD029D8D6
:10359800402B54D00CD9502B22D1CA6849680068F6
:1035A800FFF712FE50212068FFF735FE002005E0E6
:1035B800202B0DD009D9302B0AD00120012384F803
:1035C8003D30002384F83C3010BD0BB1102B05D1E1
:1035D80019462068FFF71FFE0020EFE70120EDE7FE
:1035E8000120EBE7B3F5805F34D0B3F5005F0CD171
:1035F800CB684A6889680068FFF7A6FF2268936865
:1036080043F4804393600020D8E7702B24D1CB6823
:103618004A6889680068FFF797FF2268936843F053
:10362800770393600020C9E7CA6849680068FFF714
:10363800DEFD60212068FFF7EEFD0020BEE7CA68C6
:1036480049680068FFF7C0FD40212068FFF7E3FDE7
:103658000020B3E70020B1E70120AFE70220704760
:1036680090F83C20012A3DD010B40346012280F88E
:103678003C20022280F83D2002685068946820F0BF
:10368800700C086840EA0C0050601A6816488242BC
:103698001AD0B2F1804F17D0A0F57C40824213D0E7
:1036A80000F5806082420FD000F5806082420BD026
:1036B80000F57840824207D000F57050824203D06E
:1036C800A0F59430824204D124F080044968214353
:1036D8009160012283F83D20002083F83C005DF8CA
:1036E800044B704702207047000001407047704744
:1036F800026802F10C0353E8003F23F0C0030C32C8
:1037080042E800310029F3D1202380F84130704786
:10371800026802F10C0353E8003F23F490730C3263
:1037280042E800310029F3D1026802F1140353E89A
:10373800003F23F00103143242E800310029F3D19D
:10374800036B012B05D0202380F84230002303634C
:103758007047026802F10C0353E8003F23F010039E
:103768000C3242E800310029F3D1ECE790F84130FF
:10377800DBB2212B01D0022070478368B3F5805F4C
:1037880017D0036A5A1C02621A7803685A60C38CFD
:103798009BB2013B9BB2C3844BB90268D36823F048
:1037A8008003D3600268D36843F04003D3600020ED
:1037B80070470369002BE4D1036A1B880268C3F3CE
:1037C80008035360036A02330362E0E710B5044656
:1037D8000268136923F44053C1680B43136183687B
:1037E80002691A4343691A43C3691A430168CB68DB
:1037F80023F4164323F00C031343CB600268536988
:1038080023F4407381690B4353610368314A93423F
:1038180006D002F58062934202D0FFF777F801E004
:10382800FFF784F8E369B3F5004F29D000210318A6
:1038380049411B1841F10001C90041EA5371DB00FD
:10384800181863684FEA83024FEA937341F1000145
:10385800FDF756F9204AA2FB00314909642303FB0E
:1038680011031B013233A2FB03235B0903F0F002AF
:1038780002EB011203F00F03216813448B6010BDA3
:103888000023021843EB0301121841F10001C9009B
:1038980041EA5271D200101841F100016268921891
:1038A8005B41FDF72DF90C4AA2FB0031490964235D
:1038B80003FB1103DB003233A2FB03235B095A002D
:1038C80002F4F87202EB011203F0070321681344B3
:1038D8008B60D4E7001001401F85EB5160B310B531
:1038E800044690F8413013B3242384F84130226809
:1038F800D36823F40053D3602046FFF767FF22689C
:10390800136923F4904313612268536923F02A034F
:1039180053612268D36843F40053D3600020606485
:10392800202384F8413084F84230606310BD80F869
:103938004030FDF701FDD7E70120704710B5044678
:1039480003685A6990F84130DBB2212B0AD023680A
:103958005A6902F0400294F84230DBB2222B19D0A7
:10396800002010BD02F08002002AF0D0226802F187
:10397800140353E8003F23F08003143242E8003177
:103988000029F3D1A06B08B1FFF7F1F92046FFF742
:10399800AFFEDCE7002AE3D0226802F1140353E803
:1039A800003F23F04003143242E800310029F3D1EC
:1039B800E06B08B1FFF7DBF92046FFF7A9FECFE778
:1039C800704708B50168CA6822F04002CA60202220
:1039D80080F84120FFF7F4FF002008BD70477047CA
:1039E80010B5846B23685A6994F84130DBB2212BF7
:1039F80010D023685A6902F0400294F84230DBB2D2
:103A0800222B11D0636C43F0100363642046FDF74A
:103A1800B1F810BD02F08002002AEAD00023E38446
:103A28002046FFF765FEE4E7002AEBD00023E38594
:103A38002046FFF76DFEE5E708B5806B0023C385D8
:103A4800C384FDF797F808BD90F84230DBB2222B0B
:103A580069D18368B3F5805F4FD0826AB3F5805F20
:103A680004D0002B56D10369002B53D103685B683F
:103A78001370836A01338362C38D9BB2013B9BB28F
:103A8800C385002B51D100B583B00268D36823F0F9
:103A98002003D3600268D36823F48073D36002687C
:103AA800536923F001035361202380F84230002337
:103AB8004363036B012B33D100230363026802F1D4
:103AC8000C0353E8003F23F010030C3242E80031A6
:103AD8000029F3D103681A6812F0100F06D00022EB
:103AE80001921A6801925B680193019B818DFDF731
:103AF80057F8002003B05DF804FB0269002AACD136
:103B0800826A03685B68C3F308031380836A02331D
:103B18008362B1E703685B6803F07F031370A8E76B
:103B2800FFF75CFFE5E702207047002070470000C0
:103B380010B582B0044602681368D068516913F062
:103B48000F0F09D113F0200F0CD010F0200F09D05F
:103B58002046FFF779FF16E011F0010115D110F4A6
:103B6800907F12D1216B012979D013F0800F03D0F7
:103B780010F0800F40F0148113F0400F03D010F0C4
:103B8800400F40F0118102B010BD13F0010F06D0B4
:103B980010F4807F03D0626C42F00102626413F07B
:103BA800040F04D019B1626C42F00202626413F08F
:103BB800020F04D019B1626C42F00402626413F07F
:103BC800080F07D010F0200F00D119B1626C42F035
:103BD80008026264626C002AD5D013F0200F02D06C
:103BE80010F0200F29D123685B6903F04003626C51
:103BF80012F0080F00D163B32046FFF789FD236850
:103C08005B6913F0400F20D0226802F1140353E8D7
:103C1800003F23F04003143242E800310029F3D179
:103C2800E36B73B1624A1A65E06BFFF7EAF80028A4
:103C3800A9D0E06B036D9847A5E72046FFF704FF7E
:103C4800D1E72046FCF796FF9DE72046FCF792FF58
:103C580099E72046FCF78EFF0023636493E713F08F
:103C6800100F82D010F0100F3FF47FAF00230193A4
:103C78001368019353680193019B536913F0400F34
:103C880052D0E26B13685B689BB2002B3FF47BAFAA
:103C9800A18D99427FF677AFE385D369B3F5807F2D
:103CA80037D0226802F10C0353E8003F23F48073F5
:103CB8000C3242E800310029F3D1226802F11403E2
:103CC80053E8003F23F00103143242E80031002991
:103CD800F3D1226802F1140353E8003F23F04003B4
:103CE800143242E800310029F3D1202384F842300D
:103CF80000232363226802F10C0353E8003F23F0FA
:103D080010030C3242E800310029F3D1E06BFFF7D1
:103D18002EF802236363A18DE38D9BB2C91A89B281
:103D28002046FCF73DFF2EE7A18DE38D9BB2C91A13
:103D380089B2E38D9BB2002B3FF425AF00293FF4F5
:103D480022AF226802F10C0353E8003F23F490737A
:103D58000C3242E800300028F3D1226802F1140343
:103D680053E8003F23F00103143242E800300028F2
:103D7800F3D1202384F8423000232363226802F120
:103D88000C0353E8003F23F010030C3242E80030E4
:103D98000028F3D1022363632046FCF701FFF2E613
:103DA8002046FFF7E3FCEEE62046FFF70AFEEAE6C8
:103DB800413A000808B5806B01234363036B012B6C
:103DC80002D0FFF70CFE08BD818D4908FCF7E8FE1C
:103DD800F9E708B50346806B1B681B6813F4807FFE
:103DE8002BD10023C385026802F10C0353E8003F7E
:103DF80023F480730C3242E800310029F3D10268C1
:103E080002F1140353E8003F23F00103143242E89F
:103E180000310029F3D1026802F1140353E8003F8E
:103E280023F04003143242E800310029F3D1202363
:103E380080F84230036B012B07D000234363036BE8
:103E4800012B0FD0FFF7CAFD08BD026802F10C0371
:103E580053E8003F23F010030C3242E800310029F8
:103E6800F3D1EAE7818DFCF79BFEEDE730B583B02F
:103E7800044613468162828500254564222280F823
:103E88004220C26B1F48D063E26B1F481064E26B8C
:103E98001E48D064E26B156520680A46011DE06B78
:103EA800FEF730FF019523681A6801925B68019359
:103EB800019B23695BB1226802F10C0353E8003FC0
:103EC80043F480730C3242E800310029F3D12268B0
:103ED80002F1140353E8003F43F00103143242E8AF
:103EE80000310029F3D1226802F1140353E8003F9E
:103EF80043F04003143242E800310029F3D1002096
:103F080003B030BDDB3D0008BD3D0008E9390008BD
:103F180090F84230DBB2202B29D110B582B004468C
:103F280039B312B9012002B010BD01230363002385
:103F38004363FFF79BFF0028F5D1236B012B01D0CA
:103F48000120F0E70023019323681A6801925B6857
:103F58000193019B226802F10C0353E8003F43F0F0
:103F680010030C3242E800310029F3D1DBE70220CC
:103F780070470120D7E70000034AD2F8883043F49D
:103F88007003C2F88830704700ED00E0DFF834D0E5
:103F9800FFF7F2FF0C480D490D4A002302E0D45800
:103FA800C4500433C4188C42F9D30A4A0A4C00237B
:103FB80001E013600432A242FBD3FCF733F9FCF7AB
:103FC8003DFF704700000220000000201000002084
:103FD800D04200081000002008050020FEE72DE967
:103FE800F04786468C460846089E1546744619468C
:103FF800002B40F0C2808542B2FA82F245D94AB11C
:10400800C2F1200300FA02FC2EFA03F3954043EABA
:104018000C0C94404FEA154EA8B2BCFBFEF8230CDA
:104028000EFB18CC08FB00F943EA0C43994528D944
:10403800EB1808F1FF3704D2994502D9A8F1020715
:104048002B44A3EB0903A4B2B3FBFEFC0EFB1C3309
:104058000CFB00F044EA0344A04214D92C190CF1DB
:10406800FF3304D2A04202D9ACF102032C44241A33
:1040780043EA07401EB1D440002334607360BDE8B2
:10408800F0874746DDE76346F1E792BB431B012112
:104098004FEA154EAFB2B3FBFEFC200C0EFB1C33EF
:1040A8000CFB07F840EA0343984562D9EB180CF17A
:1040B800FF3004D2984502D9ACF102002B44A3EB9F
:1040C8000803A4B2B3FBFEFC0EFB1C330CFB07F782
:1040D80044EA0344A7424ED92C190CF1FF3304D209
:1040E800A74202D9ACF102032C44E41B43EA004086
:1040F800C0E7C2F1200320FA03F1954090402EFA60
:1041080003F303434FEA154EAFB2B1FBFEFC0EFBBF
:104118001C10190C0CFB07F841EA0041884504FA09
:1041280002F422D969180CF1FF3004D2884502D96B
:10413800ACF102002944A1EB08019BB2B1FBFEFCE3
:104148000EFB1C110CFB07F743EA01439F420ED9F3
:10415800EB180CF1FF3104D29F4202D9ACF10201F5
:104168002B44DB1B41EA004192E76046E3E76146E6
:10417800F7E76046A3E76346B7E7834206D916B96F
:10418800002108467BE7C6E900E0F9E7B3FA83F7C0
:104198008FB9834201D3724508D8BEEB020460EBA5
:1041A800030301209C461EB9002168E73846FAE758
:1041B800C6E9004CF8E7C7F1200CBB4022FA0CF422
:1041C8001C432EFA0CF120FA0CF3B84001434FEAD5
:1041D80014490EFA07F5B3FBF9F81FFA84FE09FB38
:1041E80018300B0C08FB0EFA43EA00439A4502FA12
:1041F80007F240D9E31808F1FF3004D29A4502D9F2
:10420800A8F102002344A3EB0A0389B2B3FBF9F82F
:1042180009FB183308FB0EFE41EA03418E452CD9F1
:10422800611808F1FF3304D28E4502D9A8F10203C0
:10423800214443EA0040A0FB0298A1EB0E0141454E
:10424800CE46434602D306D14D4504D2B9EB020E01
:1042580068EB04030138002EA6D0B5EB0E0261EB23
:10426800030101FA0CFC22FA07F34CEA0303F940B4
:10427800C6E9003198E74046C5E74346D9E700005C
:10428800F8B500BFF8BC08BC9E467047F8B500BF3B
:08429800F8BC08BC9E4670470B
:1042A00000061016000610160000000001020304AC
:1042B00000000000000000000102030406070809D6
:0842C00026FDFF7F0100000054
:0442C800610B00087E
:0442CC003D0B00089E
:1042D0000000204301000000100000000024F40052
:0400000508003F951B
:00000001FF
